{
  "_format": "hh-sol-artifact-1",
  "contractName": "Staking",
  "sourceName": "contracts/Staking.sol",
  "abi": [
    {
      "inputs": [
        {
          "internalType": "address",
          "name": "tokenAddress",
          "type": "address"
        },
        {
          "internalType": "address",
          "name": "NFTAddress",
          "type": "address"
        }
      ],
      "stateMutability": "nonpayable",
      "type": "constructor"
    },
    {
      "inputs": [
        {
          "internalType": "address",
          "name": "",
          "type": "address"
        }
      ],
      "name": "NFTM",
      "outputs": [
        {
          "internalType": "uint256",
          "name": "amountStaked",
          "type": "uint256"
        },
        {
          "internalType": "uint256",
          "name": "lastClaim",
          "type": "uint256"
        }
      ],
      "stateMutability": "view",
      "type": "function"
    },
    {
      "inputs": [],
      "name": "claim",
      "outputs": [],
      "stateMutability": "nonpayable",
      "type": "function"
    },
    {
      "inputs": [
        {
          "internalType": "uint256[]",
          "name": "tokenId",
          "type": "uint256[]"
        }
      ],
      "name": "stake",
      "outputs": [],
      "stateMutability": "nonpayable",
      "type": "function"
    },
    {
      "inputs": [
        {
          "internalType": "uint256[]",
          "name": "tokenId",
          "type": "uint256[]"
        }
      ],
      "name": "unstake",
      "outputs": [],
      "stateMutability": "nonpayable",
      "type": "function"
    },
    {
      "inputs": [],
      "name": "unstakeAll",
      "outputs": [],
      "stateMutability": "nonpayable",
      "type": "function"
    }
  ],
  "bytecode": "0x6080604052620151806002553480156200001857600080fd5b50604051620018653803806200186583398181016040528101906200003e9190620000de565b816000806101000a81548173ffffffffffffffffffffffffffffffffffffffff021916908373ffffffffffffffffffffffffffffffffffffffff16021790555080600160006101000a81548173ffffffffffffffffffffffffffffffffffffffff021916908373ffffffffffffffffffffffffffffffffffffffff160217905550505062000178565b600081519050620000d8816200015e565b92915050565b60008060408385031215620000f857620000f762000159565b5b60006200010885828601620000c7565b92505060206200011b85828601620000c7565b9150509250929050565b6000620001328262000139565b9050919050565b600073ffffffffffffffffffffffffffffffffffffffff82169050919050565b600080fd5b620001698162000125565b81146200017557600080fd5b50565b6116dd80620001886000396000f3fe608060405234801561001057600080fd5b50600436106100575760003560e01c80630fbf0a931461005c57806335322f37146100785780634e71d92d14610082578063925aded41461008c578063e449f341146100bd575b600080fd5b610076600480360381019061007191906111f2565b6100d9565b005b610080610421565b005b61008a610623565b005b6100a660048036038101906100a19190611198565b61085e565b6040516100b4929190611301565b60405180910390f35b6100d760048036038101906100d291906111f2565b610882565b005b60005b8151811015610322573073ffffffffffffffffffffffffffffffffffffffff16600160009054906101000a900473ffffffffffffffffffffffffffffffffffffffff1673ffffffffffffffffffffffffffffffffffffffff1663081812fc84848151811061014d5761014c6115df565b5b60200260200101516040518263ffffffff1660e01b815260040161017191906112e6565b60206040518083038186803b15801561018957600080fd5b505afa15801561019d573d6000803e3d6000fd5b505050506040513d601f19601f820116820180604052508101906101c191906111c5565b73ffffffffffffffffffffffffffffffffffffffff16146101e157600080fd5b600160009054906101000a900473ffffffffffffffffffffffffffffffffffffffff1673ffffffffffffffffffffffffffffffffffffffff166323b872dd3330858581518110610234576102336115df565b5b60200260200101516040518463ffffffff1660e01b815260040161025a93929190611286565b600060405180830381600087803b15801561027457600080fd5b505af1158015610288573d6000803e3d6000fd5b50505050600360003373ffffffffffffffffffffffffffffffffffffffff1673ffffffffffffffffffffffffffffffffffffffff1681526020019081526020016000206002018282815181106102e1576102e06115df565b5b60200260200101519080600181540180825580915050600190039060005260206000200160009091909190915055808061031a90611509565b9150506100dc565b506000600360003373ffffffffffffffffffffffffffffffffffffffff1673ffffffffffffffffffffffffffffffffffffffff16815260200190815260200160002060000154111561037c57610377336109c3565b6103c4565b42600360003373ffffffffffffffffffffffffffffffffffffffff1673ffffffffffffffffffffffffffffffffffffffff168152602001908152602001600020600101819055505b8051600360003373ffffffffffffffffffffffffffffffffffffffff1673ffffffffffffffffffffffffffffffffffffffff1681526020019081526020016000206000016000828254610417919061137b565b9250508190555050565b6000600360003373ffffffffffffffffffffffffffffffffffffffff1673ffffffffffffffffffffffffffffffffffffffff1681526020019081526020016000206002018054806020026020016040519081016040528092919081815260200182805480156104af57602002820191906000526020600020905b81548152602001906001019080831161049b575b505050505090506104bf336109c3565b6000600360003373ffffffffffffffffffffffffffffffffffffffff1673ffffffffffffffffffffffffffffffffffffffff16815260200190815260200160002060000181905550600360003373ffffffffffffffffffffffffffffffffffffffff1673ffffffffffffffffffffffffffffffffffffffff16815260200190815260200160002060020160006105559190611068565b60005b815181101561061f57600160009054906101000a900473ffffffffffffffffffffffffffffffffffffffff1673ffffffffffffffffffffffffffffffffffffffff166323b872dd30338585815181106105b4576105b36115df565b5b60200260200101516040518463ffffffff1660e01b81526004016105da93929190611286565b600060405180830381600087803b1580156105f457600080fd5b505af1158015610608573d6000803e3d6000fd5b50505050808061061790611509565b915050610558565b5050565b6000600360003373ffffffffffffffffffffffffffffffffffffffff1673ffffffffffffffffffffffffffffffffffffffff168152602001908152602001600020600001541161067257600080fd5b6000600360003373ffffffffffffffffffffffffffffffffffffffff1673ffffffffffffffffffffffffffffffffffffffff16815260200190815260200160002060010154426106c2919061145c565b905060008160025468056bc75e2d631000006106de91906113d1565b6106e89190611402565b90506000600360003373ffffffffffffffffffffffffffffffffffffffff1673ffffffffffffffffffffffffffffffffffffffff1681526020019081526020016000206000015468056bc75e2d6310000083681811bcdf965170000061074e9190611402565b61075891906113d1565b6107629190611402565b905042600360003373ffffffffffffffffffffffffffffffffffffffff1673ffffffffffffffffffffffffffffffffffffffff1681526020019081526020016000206001018190555060008054906101000a900473ffffffffffffffffffffffffffffffffffffffff1673ffffffffffffffffffffffffffffffffffffffff1663a9059cbb33836040518363ffffffff1660e01b81526004016108069291906112bd565b602060405180830381600087803b15801561082057600080fd5b505af1158015610834573d6000803e3d6000fd5b505050506040513d601f19601f82011682018060405250810190610858919061123b565b50505050565b60036020528060005260406000206000915090508060000154908060010154905082565b8051600360003373ffffffffffffffffffffffffffffffffffffffff1673ffffffffffffffffffffffffffffffffffffffff1681526020019081526020016000206000015410156108d257600080fd5b6108db336109c3565b6000600360003373ffffffffffffffffffffffffffffffffffffffff1673ffffffffffffffffffffffffffffffffffffffff16815260200190815260200160002060000154905060005b825181101561096457610951838281518110610944576109436115df565b5b6020026020010151610bff565b808061095c90611509565b915050610925565b508151600360003373ffffffffffffffffffffffffffffffffffffffff1673ffffffffffffffffffffffffffffffffffffffff16815260200190815260200160002060000154826109b5919061145c565b146109bf57600080fd5b5050565b6000600360008373ffffffffffffffffffffffffffffffffffffffff1673ffffffffffffffffffffffffffffffffffffffff1681526020019081526020016000206000015411610a1257600080fd5b6000600360008373ffffffffffffffffffffffffffffffffffffffff1673ffffffffffffffffffffffffffffffffffffffff1681526020019081526020016000206001015442610a62919061145c565b905060008160025468056bc75e2d63100000610a7e91906113d1565b610a889190611402565b90506000600360008573ffffffffffffffffffffffffffffffffffffffff1673ffffffffffffffffffffffffffffffffffffffff1681526020019081526020016000206000015468056bc75e2d6310000083681811bcdf9651700000610aee9190611402565b610af891906113d1565b610b029190611402565b905042600360008673ffffffffffffffffffffffffffffffffffffffff1673ffffffffffffffffffffffffffffffffffffffff1681526020019081526020016000206001018190555060008054906101000a900473ffffffffffffffffffffffffffffffffffffffff1673ffffffffffffffffffffffffffffffffffffffff1663a9059cbb85836040518363ffffffff1660e01b8152600401610ba69291906112bd565b602060405180830381600087803b158015610bc057600080fd5b505af1158015610bd4573d6000803e3d6000fd5b505050506040513d601f19601f82011682018060405250810190610bf8919061123b565b5050505050565b60005b600360003373ffffffffffffffffffffffffffffffffffffffff1673ffffffffffffffffffffffffffffffffffffffff1681526020019081526020016000206002018054905081101561106457600360003373ffffffffffffffffffffffffffffffffffffffff1673ffffffffffffffffffffffffffffffffffffffff1681526020019081526020016000206002018181548110610ca357610ca26115df565b5b9060005260206000200154821415611051576001600360003373ffffffffffffffffffffffffffffffffffffffff1673ffffffffffffffffffffffffffffffffffffffff168152602001908152602001600020600001541415610d9b576000600360003373ffffffffffffffffffffffffffffffffffffffff1673ffffffffffffffffffffffffffffffffffffffff16815260200190815260200160002060000181905550600360003373ffffffffffffffffffffffffffffffffffffffff1673ffffffffffffffffffffffffffffffffffffffff1681526020019081526020016000206002016000610d969190611068565b610df6565b6001600360003373ffffffffffffffffffffffffffffffffffffffff1673ffffffffffffffffffffffffffffffffffffffff1681526020019081526020016000206000016000828254610dee919061145c565b925050819055505b6000600360003373ffffffffffffffffffffffffffffffffffffffff1673ffffffffffffffffffffffffffffffffffffffff168152602001908152602001600020600201805490501115610fbf57600360003373ffffffffffffffffffffffffffffffffffffffff1673ffffffffffffffffffffffffffffffffffffffff1681526020019081526020016000206002016001600360003373ffffffffffffffffffffffffffffffffffffffff1673ffffffffffffffffffffffffffffffffffffffff16815260200190815260200160002060020180549050610ed8919061145c565b81548110610ee957610ee86115df565b5b9060005260206000200154600360003373ffffffffffffffffffffffffffffffffffffffff1673ffffffffffffffffffffffffffffffffffffffff1681526020019081526020016000206002018281548110610f4857610f476115df565b5b9060005260206000200181905550600360003373ffffffffffffffffffffffffffffffffffffffff1673ffffffffffffffffffffffffffffffffffffffff168152602001908152602001600020600201805480610fa857610fa76115b0565b5b600190038181906000526020600020016000905590555b600160009054906101000a900473ffffffffffffffffffffffffffffffffffffffff1673ffffffffffffffffffffffffffffffffffffffff166323b872dd3033856040518463ffffffff1660e01b815260040161101e93929190611286565b600060405180830381600087803b15801561103857600080fd5b505af115801561104c573d6000803e3d6000fd5b505050505b808061105c90611509565b915050610c02565b5050565b50805460008255906000526020600020908101906110869190611089565b50565b5b808211156110a257600081600090555060010161108a565b5090565b60006110b96110b48461134f565b61132a565b905080838252602082019050828560208602820111156110dc576110db611642565b5b60005b8581101561110c57816110f28882611183565b8452602084019350602083019250506001810190506110df565b5050509392505050565b60008135905061112581611662565b92915050565b60008151905061113a81611662565b92915050565b600082601f8301126111555761115461163d565b5b81356111658482602086016110a6565b91505092915050565b60008151905061117d81611679565b92915050565b60008135905061119281611690565b92915050565b6000602082840312156111ae576111ad61164c565b5b60006111bc84828501611116565b91505092915050565b6000602082840312156111db576111da61164c565b5b60006111e98482850161112b565b91505092915050565b6000602082840312156112085761120761164c565b5b600082013567ffffffffffffffff81111561122657611225611647565b5b61123284828501611140565b91505092915050565b6000602082840312156112515761125061164c565b5b600061125f8482850161116e565b91505092915050565b61127181611490565b82525050565b611280816114ce565b82525050565b600060608201905061129b6000830186611268565b6112a86020830185611268565b6112b56040830184611277565b949350505050565b60006040820190506112d26000830185611268565b6112df6020830184611277565b9392505050565b60006020820190506112fb6000830184611277565b92915050565b60006040820190506113166000830185611277565b6113236020830184611277565b9392505050565b6000611334611345565b905061134082826114d8565b919050565b6000604051905090565b600067ffffffffffffffff82111561136a5761136961160e565b5b602082029050602081019050919050565b6000611386826114ce565b9150611391836114ce565b9250827fffffffffffffffffffffffffffffffffffffffffffffffffffffffffffffffff038211156113c6576113c5611552565b5b828201905092915050565b60006113dc826114ce565b91506113e7836114ce565b9250826113f7576113f6611581565b5b828204905092915050565b600061140d826114ce565b9150611418836114ce565b9250817fffffffffffffffffffffffffffffffffffffffffffffffffffffffffffffffff048311821515161561145157611450611552565b5b828202905092915050565b6000611467826114ce565b9150611472836114ce565b92508282101561148557611484611552565b5b828203905092915050565b600061149b826114ae565b9050919050565b60008115159050919050565b600073ffffffffffffffffffffffffffffffffffffffff82169050919050565b6000819050919050565b6114e182611651565b810181811067ffffffffffffffff82111715611500576114ff61160e565b5b80604052505050565b6000611514826114ce565b91507fffffffffffffffffffffffffffffffffffffffffffffffffffffffffffffffff82141561154757611546611552565b5b600182019050919050565b7f4e487b7100000000000000000000000000000000000000000000000000000000600052601160045260246000fd5b7f4e487b7100000000000000000000000000000000000000000000000000000000600052601260045260246000fd5b7f4e487b7100000000000000000000000000000000000000000000000000000000600052603160045260246000fd5b7f4e487b7100000000000000000000000000000000000000000000000000000000600052603260045260246000fd5b7f4e487b7100000000000000000000000000000000000000000000000000000000600052604160045260246000fd5b600080fd5b600080fd5b600080fd5b600080fd5b6000601f19601f8301169050919050565b61166b81611490565b811461167657600080fd5b50565b611682816114a2565b811461168d57600080fd5b50565b611699816114ce565b81146116a457600080fd5b5056fea26469706673582212202a23694cb5bb2b38923863ca84bcbe68437a4bd55c68efd51430db910d511a8864736f6c63430008070033",
  "linkReferences": {},
  "deployedLinkReferences": {}
}