{
  "_format": "hh-sol-artifact-1",
  "contractName": "Staking",
  "sourceName": "contracts/LPMine.sol",
  "abi": [
    {
      "inputs": [
        {
          "internalType": "address",
          "name": "_rewardToken",
          "type": "address"
        },
        {
          "internalType": "address",
          "name": "_LPAddress",
          "type": "address"
        },
        {
          "internalType": "uint256[]",
          "name": "_tPeriods",
          "type": "uint256[]"
        }
      ],
      "stateMutability": "nonpayable",
      "type": "constructor"
    },
    {
      "anonymous": false,
      "inputs": [
        {
          "indexed": true,
          "internalType": "address",
          "name": "depositor",
          "type": "address"
        },
        {
          "indexed": true,
          "internalType": "uint256",
          "name": "amount",
          "type": "uint256"
        },
        {
          "indexed": true,
          "internalType": "uint256",
          "name": "pId",
          "type": "uint256"
        }
      ],
      "name": "newDeposit",
      "type": "event"
    },
    {
      "anonymous": false,
      "inputs": [
        {
          "indexed": true,
          "internalType": "address",
          "name": "depositor",
          "type": "address"
        },
        {
          "indexed": true,
          "internalType": "uint256",
          "name": "stakes",
          "type": "uint256"
        },
        {
          "indexed": true,
          "internalType": "uint256",
          "name": "rewards",
          "type": "uint256"
        }
      ],
      "name": "newWithdraw",
      "type": "event"
    },
    {
      "inputs": [],
      "name": "LPAddr",
      "outputs": [
        {
          "internalType": "contract ILP",
          "name": "",
          "type": "address"
        }
      ],
      "stateMutability": "view",
      "type": "function"
    },
    {
      "inputs": [
        {
          "internalType": "uint256",
          "name": "_amount",
          "type": "uint256"
        },
        {
          "internalType": "uint256",
          "name": "_p",
          "type": "uint256"
        }
      ],
      "name": "deposit",
      "outputs": [
        {
          "internalType": "bool",
          "name": "",
          "type": "bool"
        }
      ],
      "stateMutability": "nonpayable",
      "type": "function"
    },
    {
      "inputs": [
        {
          "internalType": "uint256",
          "name": "_id",
          "type": "uint256"
        }
      ],
      "name": "getLockPeridOf",
      "outputs": [
        {
          "internalType": "uint256",
          "name": "",
          "type": "uint256"
        }
      ],
      "stateMutability": "view",
      "type": "function"
    },
    {
      "inputs": [
        {
          "internalType": "address",
          "name": "_of",
          "type": "address"
        }
      ],
      "name": "getRewards",
      "outputs": [
        {
          "internalType": "uint256",
          "name": "",
          "type": "uint256"
        }
      ],
      "stateMutability": "view",
      "type": "function"
    },
    {
      "inputs": [
        {
          "internalType": "address",
          "name": "_of",
          "type": "address"
        }
      ],
      "name": "getStake",
      "outputs": [
        {
          "internalType": "uint256",
          "name": "",
          "type": "uint256"
        }
      ],
      "stateMutability": "view",
      "type": "function"
    },
    {
      "inputs": [
        {
          "internalType": "address",
          "name": "_of",
          "type": "address"
        }
      ],
      "name": "getStaked",
      "outputs": [
        {
          "internalType": "uint256",
          "name": "",
          "type": "uint256"
        }
      ],
      "stateMutability": "view",
      "type": "function"
    },
    {
      "inputs": [
        {
          "internalType": "address",
          "name": "_of",
          "type": "address"
        }
      ],
      "name": "getUnlock",
      "outputs": [
        {
          "internalType": "uint256",
          "name": "",
          "type": "uint256"
        }
      ],
      "stateMutability": "view",
      "type": "function"
    },
    {
      "inputs": [],
      "name": "rToken",
      "outputs": [
        {
          "internalType": "contract IERC20",
          "name": "",
          "type": "address"
        }
      ],
      "stateMutability": "view",
      "type": "function"
    },
    {
      "inputs": [],
      "name": "withdraw",
      "outputs": [
        {
          "internalType": "bool",
          "name": "",
          "type": "bool"
        }
      ],
      "stateMutability": "nonpayable",
      "type": "function"
    }
  ],
  "bytecode": "0x60806040523480156200001157600080fd5b5060405162001746380380620017468339818101604052810190620000379190620001f6565b826000806101000a81548173ffffffffffffffffffffffffffffffffffffffff021916908373ffffffffffffffffffffffffffffffffffffffff16021790555081600160006101000a81548173ffffffffffffffffffffffffffffffffffffffff021916908373ffffffffffffffffffffffffffffffffffffffff16021790555060005b81518110156200011057818181518110620000db57620000da620003ba565b5b60200260200101516002600083815260200190815260200160002081905550808062000107906200033d565b915050620000bb565b5050505062000471565b6000620001316200012b846200029a565b62000271565b905080838252602082019050828560208602820111156200015757620001566200041d565b5b60005b858110156200018b5781620001708882620001df565b8452602084019350602083019250506001810190506200015a565b5050509392505050565b600081519050620001a6816200043d565b92915050565b600082601f830112620001c457620001c362000418565b5b8151620001d68482602086016200011a565b91505092915050565b600081519050620001f08162000457565b92915050565b60008060006060848603121562000212576200021162000427565b5b6000620002228682870162000195565b9350506020620002358682870162000195565b925050604084015167ffffffffffffffff81111562000259576200025862000422565b5b6200026786828701620001ac565b9150509250925092565b60006200027d62000290565b90506200028b828262000307565b919050565b6000604051905090565b600067ffffffffffffffff821115620002b857620002b7620003e9565b5b602082029050602081019050919050565b6000620002d682620002dd565b9050919050565b600073ffffffffffffffffffffffffffffffffffffffff82169050919050565b6000819050919050565b62000312826200042c565b810181811067ffffffffffffffff82111715620003345762000333620003e9565b5b80604052505050565b60006200034a82620002fd565b91507fffffffffffffffffffffffffffffffffffffffffffffffffffffffffffffffff82141562000380576200037f6200038b565b5b600182019050919050565b7f4e487b7100000000000000000000000000000000000000000000000000000000600052601160045260246000fd5b7f4e487b7100000000000000000000000000000000000000000000000000000000600052603260045260246000fd5b7f4e487b7100000000000000000000000000000000000000000000000000000000600052604160045260246000fd5b600080fd5b600080fd5b600080fd5b600080fd5b6000601f19601f8301169050919050565b6200044881620002c9565b81146200045457600080fd5b50565b6200046281620002fd565b81146200046e57600080fd5b50565b6112c580620004816000396000f3fe608060405234801561001057600080fd5b50600436106100935760003560e01c806379ee54f71161006657806379ee54f7146101345780637a76646014610164578063833f375114610194578063e2bbb158146101b2578063f51c1296146101e257610093565b8063324fa34614610098578063399080ec146100c85780633ccfd60b146100f857806340c65f7214610116575b600080fd5b6100b260048036038101906100ad9190610bdd565b610212565b6040516100bf9190610f20565b60405180910390f35b6100e260048036038101906100dd9190610b83565b61022f565b6040516100ef9190610f20565b60405180910390f35b61010061027b565b60405161010d9190610e0f565b60405180910390f35b61011e61062a565b60405161012b9190610e2a565b60405180910390f35b61014e60048036038101906101499190610b83565b61064e565b60405161015b9190610f20565b60405180910390f35b61017e60048036038101906101799190610b83565b6106d2565b60405161018b9190610f20565b60405180910390f35b61019c610709565b6040516101a99190610e45565b60405180910390f35b6101cc60048036038101906101c79190610c37565b61072f565b6040516101d99190610e0f565b60405180910390f35b6101fc60048036038101906101f79190610b83565b610980565b6040516102099190610f20565b60405180910390f35b600060026000838152602001908152602001600020549050919050565b6000600360008373ffffffffffffffffffffffffffffffffffffffff1673ffffffffffffffffffffffffffffffffffffffff168152602001908152602001600020600001549050919050565b6000600360003373ffffffffffffffffffffffffffffffffffffffff1673ffffffffffffffffffffffffffffffffffffffff168152602001908152602001600020600101544211610301576040517f08c379a00000000000000000000000000000000000000000000000000000000081526004016102f890610e80565b60405180910390fd5b600061030c3361022f565b1161034c576040517f08c379a000000000000000000000000000000000000000000000000000000000815260040161034390610f00565b60405180910390fd5b6000604051806060016040528060008152602001600081526020016000815250905060006103793361064e565b905060006103863361022f565b905082600360003373ffffffffffffffffffffffffffffffffffffffff1673ffffffffffffffffffffffffffffffffffffffff168152602001908152602001600020600082015181600001556020820151816001015560408201518160020155905050600160009054906101000a900473ffffffffffffffffffffffffffffffffffffffff1673ffffffffffffffffffffffffffffffffffffffff1663a9059cbb33600184610435919061102d565b6040518363ffffffff1660e01b8152600401610452929190610de6565b602060405180830381600087803b15801561046c57600080fd5b505af1158015610480573d6000803e3d6000fd5b505050506040513d601f19601f820116820180604052508101906104a49190610bb0565b6104e3576040517f08c379a00000000000000000000000000000000000000000000000000000000081526004016104da90610e60565b60405180910390fd5b60008054906101000a900473ffffffffffffffffffffffffffffffffffffffff1673ffffffffffffffffffffffffffffffffffffffff1663a9059cbb3360018561052d919061102d565b6040518363ffffffff1660e01b815260040161054a929190610de6565b602060405180830381600087803b15801561056457600080fd5b505af1158015610578573d6000803e3d6000fd5b505050506040513d601f19601f8201168201806040525081019061059c9190610bb0565b6105db576040517f08c379a00000000000000000000000000000000000000000000000000000000081526004016105d290610ec0565b60405180910390fd5b81813373ffffffffffffffffffffffffffffffffffffffff167f200ba43de000558cf592d424c1b6194484a03628d8bd3f01de51ba5ef19a053060405160405180910390a46001935050505090565b60008054906101000a900473ffffffffffffffffffffffffffffffffffffffff1681565b6000670de0b6b3a7640000610662836106d2565b600360008573ffffffffffffffffffffffffffffffffffffffff1673ffffffffffffffffffffffffffffffffffffffff168152602001908152602001600020600201546106ad6109cc565b6106b7919061102d565b6106c19190610fd3565b6106cb9190610fa2565b9050919050565b60006106dc610a7d565b670de0b6b3a76400006106ee8461022f565b6106f89190610fd3565b6107029190610fa2565b9050919050565b600160009054906101000a900473ffffffffffffffffffffffffffffffffffffffff1681565b600080600260008481526020019081526020016000205411610786576040517f08c379a000000000000000000000000000000000000000000000000000000000815260040161077d90610ee0565b60405180910390fd5b60006107913361022f565b146107d1576040517f08c379a00000000000000000000000000000000000000000000000000000000081526004016107c890610ea0565b60405180910390fd5b600160009054906101000a900473ffffffffffffffffffffffffffffffffffffffff1673ffffffffffffffffffffffffffffffffffffffff166323b872dd3330866040518463ffffffff1660e01b815260040161083093929190610daf565b602060405180830381600087803b15801561084a57600080fd5b505af115801561085e573d6000803e3d6000fd5b505050506040513d601f19601f820116820180604052508101906108829190610bb0565b61088b57600080fd5b600060405180606001604052808581526020016002600086815260200190815260200160002054426108bd9190610f4c565b81526020016108ca6109cc565b815250905080600360003373ffffffffffffffffffffffffffffffffffffffff1673ffffffffffffffffffffffffffffffffffffffff16815260200190815260200160002060008201518160000155602082015181600101556040820151816002015590505082843373ffffffffffffffffffffffffffffffffffffffff167f45751137d6df48fc3f75b9888b77c9d8f4689c5baafe29811a9a86e43706aecf60405160405180910390a4600191505092915050565b6000600360008373ffffffffffffffffffffffffffffffffffffffff1673ffffffffffffffffffffffffffffffffffffffff168152602001908152602001600020600101549050919050565b60008060009054906101000a900473ffffffffffffffffffffffffffffffffffffffff1673ffffffffffffffffffffffffffffffffffffffff166370a08231306040518263ffffffff1660e01b8152600401610a289190610d94565b60206040518083038186803b158015610a4057600080fd5b505afa158015610a54573d6000803e3d6000fd5b505050506040513d601f19601f82011682018060405250810190610a789190610c0a565b905090565b6000600160009054906101000a900473ffffffffffffffffffffffffffffffffffffffff1673ffffffffffffffffffffffffffffffffffffffff166370a08231306040518263ffffffff1660e01b8152600401610ada9190610d94565b60206040518083038186803b158015610af257600080fd5b505afa158015610b06573d6000803e3d6000fd5b505050506040513d601f19601f82011682018060405250810190610b2a9190610c0a565b905090565b600081359050610b3e8161124a565b92915050565b600081519050610b5381611261565b92915050565b600081359050610b6881611278565b92915050565b600081519050610b7d81611278565b92915050565b600060208284031215610b9957610b9861114f565b5b6000610ba784828501610b2f565b91505092915050565b600060208284031215610bc657610bc561114f565b5b6000610bd484828501610b44565b91505092915050565b600060208284031215610bf357610bf261114f565b5b6000610c0184828501610b59565b91505092915050565b600060208284031215610c2057610c1f61114f565b5b6000610c2e84828501610b6e565b91505092915050565b60008060408385031215610c4e57610c4d61114f565b5b6000610c5c85828601610b59565b9250506020610c6d85828601610b59565b9150509250929050565b610c8081611061565b82525050565b610c8f81611073565b82525050565b610c9e816110a9565b82525050565b610cad816110bb565b82525050565b6000610cc0601783610f3b565b9150610ccb82611154565b602082019050919050565b6000610ce3601383610f3b565b9150610cee8261117d565b602082019050919050565b6000610d06601483610f3b565b9150610d11826111a6565b602082019050919050565b6000610d29601783610f3b565b9150610d34826111cf565b602082019050919050565b6000610d4c601b83610f3b565b9150610d57826111f8565b602082019050919050565b6000610d6f601083610f3b565b9150610d7a82611221565b602082019050919050565b610d8e8161109f565b82525050565b6000602082019050610da96000830184610c77565b92915050565b6000606082019050610dc46000830186610c77565b610dd16020830185610c77565b610dde6040830184610d85565b949350505050565b6000604082019050610dfb6000830185610c77565b610e086020830184610d85565b9392505050565b6000602082019050610e246000830184610c86565b92915050565b6000602082019050610e3f6000830184610c95565b92915050565b6000602082019050610e5a6000830184610ca4565b92915050565b60006020820190508181036000830152610e7981610cb3565b9050919050565b60006020820190508181036000830152610e9981610cd6565b9050919050565b60006020820190508181036000830152610eb981610cf9565b9050919050565b60006020820190508181036000830152610ed981610d1c565b9050919050565b60006020820190508181036000830152610ef981610d3f565b9050919050565b60006020820190508181036000830152610f1981610d62565b9050919050565b6000602082019050610f356000830184610d85565b92915050565b600082825260208201905092915050565b6000610f578261109f565b9150610f628361109f565b9250827fffffffffffffffffffffffffffffffffffffffffffffffffffffffffffffffff03821115610f9757610f966110f1565b5b828201905092915050565b6000610fad8261109f565b9150610fb88361109f565b925082610fc857610fc7611120565b5b828204905092915050565b6000610fde8261109f565b9150610fe98361109f565b9250817fffffffffffffffffffffffffffffffffffffffffffffffffffffffffffffffff0483118215151615611022576110216110f1565b5b828202905092915050565b60006110388261109f565b91506110438361109f565b925082821015611056576110556110f1565b5b828203905092915050565b600061106c8261107f565b9050919050565b60008115159050919050565b600073ffffffffffffffffffffffffffffffffffffffff82169050919050565b6000819050919050565b60006110b4826110cd565b9050919050565b60006110c6826110cd565b9050919050565b60006110d8826110df565b9050919050565b60006110ea8261107f565b9050919050565b7f4e487b7100000000000000000000000000000000000000000000000000000000600052601160045260246000fd5b7f4e487b7100000000000000000000000000000000000000000000000000000000600052601260045260246000fd5b600080fd5b7f7374616b6564207472616e73666572206661696c656421000000000000000000600082015250565b7f66756e6473207374696c6c206c6f636b65642100000000000000000000000000600082015250565b7f4c50277320616c7265616479207374616b656421000000000000000000000000600082015250565b7f726577617264207472616e73666572206661696c656421000000000000000000600082015250565b7f4c6f636b20706572696f6420646f6573206e6f74206578697374210000000000600082015250565b7f6e6f2066756e6473207374616b65642100000000000000000000000000000000600082015250565b61125381611061565b811461125e57600080fd5b50565b61126a81611073565b811461127557600080fd5b50565b6112818161109f565b811461128c57600080fd5b5056fea26469706673582212201eacf127c50317fc851c3d8e5320abbc71eeafc84104dbc0154760f0f3bb91a564736f6c63430008070033",
  "linkReferences": {},
  "deployedLinkReferences": {}
}